:1000000026C035C034C033C032C06AC030C02FC033
:100010002EC02DC02CC02BC02AC029C028C0000073
:10002000000037000000000036000000000038002B
:10003000020202020202020202020102040810206D
:100040002004100801020000040000000000112438
:100050001FBECFE5D2E0DEBFCDBF20E0A0E6B0E01E
:1000600001C01D92A936B207E1F7C9D03DC1C8CF82
:1000700090E0FC01EC5BFF4F3491FC01E65CFF4F2C
:100080002491FC01E05DFF4FE491EE23B9F03323AE
:1000900029F0323001F198F43130C9F0F0E0EE0F80
:1000A000FF1FE65DFF4FA591B4918FB7F894EC91D7
:1000B000611114C020952E232C938FBF08953330E7
:1000C00011F0343059F78CB58F7D8CBDE7CF8AB5F0
:1000D0008F778ABDE3CF8AB58F7DFBCF2E2BECCFF8
:1000E0001F920F920FB60F9211242F933F938F936D
:1000F0009F93AF93BF938091650090916600A0910C
:100100006700B09168003091640020E3230F2D3721
:1001100058F54096A11DB11D2093640080936500A1
:1001200090936600A0936700B09368008091600090
:1001300090916100A0916200B09163000196A11DB1
:10014000B11D8093600090936100A0936200B09312
:100150006300BF91AF919F918F913F912F910F902D
:100160000FBE0F901F90189523EB230F4196A11DF2
:10017000B11DD2CFCF92DF92EF92FF920F931F93D8
:10018000E82FF92F05C0015011092109310961F14A
:10019000908196239417B9F305C0015011092109E4
:1001A000310911F1908196239413F7CFC12CD12CF2
:1001B000E12CF12C0AC08FEFC81AD80AE80AF80A15
:1001C0000C151D052E053F0579F0808186238417C7
:1001D00091F36C2D7D2D8E2D9F2D1F910F91FF90F2
:1001E000EF90DF90CF90089560E070E080E090E0C5
:1001F0001F910F91FF90EF90DF90CF90089578942A
:100200008AB582608ABD8AB581608ABD83B7826003
:1002100083BF83B7816083BF89B7826089BF80B79E
:10022000826080BF3298319A309A379A8CB5806458
:100230008CBDEAE3F0E02491E0E3F0E084918823D0
:1002400099F090E0880F991FFC01E25EFF4FA591A5
:10025000B491FC01E65DFF4F859194918FB7F894BE
:10026000EC91E22BEC938FBFCBE3D0E041E3E42EA3
:1002700040E0F42E50E0C52E50E0D52E60E082E044
:10028000F7DE61E082E0F4DE60E082E0F1DEFE01B4
:100290006491F7018491E82FF0E0EE0FFF1FEC5D11
:1002A000FF4F8591949104E214EF20E030E0462F57
:1002B00061DF611571058105910559F06F5F7F4F11
:1002C0008F4F9F4F24E0660F771F881F991F2A9535
:1002D000D1F76A3371051CF461E080E0C9DEC11416
:0C02E000D10461F28DDECACFF894FFCF8C
:00000001FF
